{
	"data": {
		"bytecode": {
			"linkReferences": {},
			"object": "6095610024600b82828239805160001a607314601757fe5b30600052607381538281f3fe730000000000000000000000000000000000000000301460806040526004361060335760003560e01c8063db613e81146038575b600080fd5b603e605a565b604080516001600160a01b039092168252519081900360200190f35b60009056fea2646970667358221220019dc2f82c3ccaf8d7766ef1a0563171741a1ee63f56b8c9c9e4d311742411d764736f6c63430007060033",
			"opcodes": "PUSH1 0x95 PUSH2 0x24 PUSH1 0xB DUP3 DUP3 DUP3 CODECOPY DUP1 MLOAD PUSH1 0x0 BYTE PUSH1 0x73 EQ PUSH1 0x17 JUMPI INVALID JUMPDEST ADDRESS PUSH1 0x0 MSTORE PUSH1 0x73 DUP2 MSTORE8 DUP3 DUP2 RETURN INVALID PUSH20 0x0 ADDRESS EQ PUSH1 0x80 PUSH1 0x40 MSTORE PUSH1 0x4 CALLDATASIZE LT PUSH1 0x33 JUMPI PUSH1 0x0 CALLDATALOAD PUSH1 0xE0 SHR DUP1 PUSH4 0xDB613E81 EQ PUSH1 0x38 JUMPI JUMPDEST PUSH1 0x0 DUP1 REVERT JUMPDEST PUSH1 0x3E PUSH1 0x5A JUMP JUMPDEST PUSH1 0x40 DUP1 MLOAD PUSH1 0x1 PUSH1 0x1 PUSH1 0xA0 SHL SUB SWAP1 SWAP3 AND DUP3 MSTORE MLOAD SWAP1 DUP2 SWAP1 SUB PUSH1 0x20 ADD SWAP1 RETURN JUMPDEST PUSH1 0x0 SWAP1 JUMP INVALID LOG2 PUSH5 0x6970667358 0x22 SLT KECCAK256 ADD SWAP14 0xC2 0xF8 0x2C EXTCODECOPY 0xCA 0xF8 0xD7 PUSH23 0x6EF1A0563171741A1EE63F56B8C9C9E4D311742411D764 PUSH20 0x6F6C634300070600330000000000000000000000 "
		},
		"gasEstimates": {
			"creation": {
				"codeDepositCost": "29800",
				"executionCost": "106",
				"totalCost": "29906"
			},
			"external": {
				"getAccount()": "181"
			}
		},
		"methodIdentifiers": {
			"getAccount()": "db613e81"
		}
	},
	"abi": [
		{
			"inputs": [],
			"name": "getAccount",
			"outputs": [
				{
					"internalType": "address",
					"name": "",
					"type": "address"
				}
			],
			"stateMutability": "pure",
			"type": "function"
		}
	]
}